:020000040000FA
:020000001128C5
:040002000034003492
:080008000900FA30A00000001D
:10001000A00B07280800FA30A1000520A10B0D282D
:10002000080083160030860083120F3086000B20F4
:100030000B200B200B20003086000B200B200B2008
:100040000B200F3086000B200B200B200B200030E4
:1000500086000B200B200B200B200F3086000B207E
:100060000B200B200B20003086000B200B200F30C4
:1000700086000B200B200B200B20003086000B206D
:100080000B200F3086000B200B200B200B200030A4
:1000900086000B200B200F3086000B200B200B203E
:1000A0000B20003086000B200B20013086000B2037
:1000B0000B20033086000B200B20073086000B201E
:1000C0000B200F3086000B200B20073086000B2002
:1000D0000B20033086000B200B20013086000B2004
:0C00E0000B20003086000B200B201528A0
:02400E00103F61
:00000001FF
