:020000040000FA
:02000000422894
:040002000034003492
:080008000900FA30A300A30B6C
:1000100007280800FA30A4000520A40B0C280800CB
:100020006E30A2002108220203191B2806140A3090
:100030002107A10010280610080086142008A2003D
:1000400014302202031D32282D30A2002008220283
:1000500003193228861106150A20061105302007DB
:10006000A00024288610861508002108A20032303E
:1000700022020319402806160A302102A100352861
:100080000612080083168601831286151930A00017
:100090005A30A100102005302002A0001D200A20A7
:1000A0000A200A200A2035200A200A200A200A20D5
:0200B0004A28DC
:02400E00103F61
:00000001FF
