:020000040000FA
:02000000452891
:040002000034003492
:080008000900FA30A00000001D
:10001000A00B07280800FA30A1000520A10B0D282D
:1000200008006E30A2002108220203191C280614C1
:100030000A302107A10011280610080086142008A4
:10004000A20014302202031D32282D30A200200805
:1000500022020319322886110615061105302007E1
:10006000A00025288610861508002108A20032303D
:1000700022020319402806160A302102A100352861
:10008000061205302002A0000800831686018312A4
:1000900086151930A0005A30A10011201E203520ED
:0200A0004D28E9
:02400E00103F61
:00000001FF
