:020000040000FA
:02000000432893
:040002000034003492
:080008000900FA30A00000001D
:10001000A00B07280800FA30A1000520A10B0D282D
:1000200008006E30A2002108220203191C280614C1
:100030000A302107A10011280610080086142008A4
:10004000A20014302202031D33282D30A200200804
:10005000220203193328861106150B2006110530DC
:100060002007A00025288610861508002108A20078
:10007000323022020319412806160A302102A1005B
:100080003628061208008316860183128615193059
:10009000A0005A30A100112005302002A0001E202F
:1000A0000B200B200B200B2036200B200B200B20CD
:0400B0000B204B28AE
:02400E00103F61
:00000001FF
