:020000040000FA
:020000003F2897
:040002000034003492
:080008000900FA30A00000001D
:10001000A00B07280800FA30A1000520A10B0D282D
:1000200008006E30A2002108220203191C280614C1
:100030000A302107A10011280610080086142D306F
:10004000A2002008220203192D28861106150B2074
:10005000061105302007A0001F288610861508000D
:100060002108A2003230220203193B2806160A306A
:100070002102A100302806121430A00008008316C7
:100080008601831286151930A0005A30A100112074
:0E0090001E200B200B200B200B2030204728B9
:02400E00103F61
:00000001FF
