:020000040000FA
:02000000402896
:040002000034003492
:0800080009006E300602031D21
:100010000B28061008000614372037203720372019
:100020003720052808002D080502031D1928861011
:100030000800861437203720372037203720132830
:100040000800061E2F2832300602031929288615BB
:100050000800861137203720061486140800323035
:100060000602031935288615080086110800FF309E
:10007000A000FF30A100A10B3B28A00B39280800ED
:1000800083166030860007308100831206108610C8
:0C009000861106120520132021204A28AA
:00000001FF
